{
  "contractName": "Valuton",
  "abi": [
    {
      "inputs": [],
      "name": "ContractPauseStatus",
      "type": "error"
    },
    {
      "inputs": [
        {
          "internalType": "address",
          "name": "",
          "type": "address"
        }
      ],
      "name": "DepositNo",
      "outputs": [
        {
          "internalType": "uint256",
          "name": "",
          "type": "uint256"
        }
      ],
      "stateMutability": "view",
      "type": "function"
    },
    {
      "inputs": [
        {
          "internalType": "address",
          "name": "",
          "type": "address"
        }
      ],
      "name": "DepositTimeNo",
      "outputs": [
        {
          "internalType": "uint256",
          "name": "",
          "type": "uint256"
        }
      ],
      "stateMutability": "view",
      "type": "function"
    },
    {
      "inputs": [
        {
          "internalType": "address",
          "name": "",
          "type": "address"
        }
      ],
      "name": "DepositTimeYes",
      "outputs": [
        {
          "internalType": "uint256",
          "name": "",
          "type": "uint256"
        }
      ],
      "stateMutability": "view",
      "type": "function"
    },
    {
      "inputs": [
        {
          "internalType": "address",
          "name": "",
          "type": "address"
        }
      ],
      "name": "DepositYes",
      "outputs": [
        {
          "internalType": "uint256",
          "name": "",
          "type": "uint256"
        }
      ],
      "stateMutability": "view",
      "type": "function"
    },
    {
      "inputs": [
        {
          "internalType": "uint256",
          "name": "amount",
          "type": "uint256"
        },
        {
          "internalType": "enum Valuton.Opinion",
          "name": "opinion",
          "type": "uint8"
        }
      ],
      "name": "withdrawLido",
      "outputs": [],
      "stateMutability": "nonpayable",
      "type": "function"
    },
    {
      "inputs": [],
      "name": "dispatch",
      "outputs": [],
      "stateMutability": "nonpayable",
      "type": "function"
    },
    {
      "inputs": [
        {
          "internalType": "uint256",
          "name": "amount",
          "type": "uint256"
        },
        {
          "internalType": "enum Valuton.Opinion",
          "name": "opinion",
          "type": "uint8"
        }
      ],
      "name": "depositLido",
      "outputs": [],
      "stateMutability": "nonpayable",
      "type": "function"
    },
    {
      "inputs": [],
      "name": "reportLido",
      "outputs": [],
      "stateMutability": "nonpayable",
      "type": "function"
    }
  ],
  "bytecode": "0x608060405260015f806101000a81548160ff02191690831515021790555060015f60016101000a81548160ff021916908315150217905550348015610042575f80fd5b506104a7806100505f395ff3fe608060405234801561000f575f80fd5b5060043610610086575f3560e01c8063731b601e11610059578063731b601e146101105780639a2699c614610140578063e9c4a3ac1461015c578063fa9e1ff81461016657610086565b80630c231fce1461008a5780631dadb308146100ba5780632d815a5d146100c45780635663653b146100f4575b5f80fd5b6100a4600480360381019061009f919061035d565b610196565b6040516100b191906103a0565b60405180910390f35b6100c26101ab565b005b6100de60048036038101906100d9919061035d565b6101c5565b6040516100eb91906103a0565b60405180910390f35b61010e60048036038101906101099190610406565b6101da565b005b61012a6004803603810190610125919061035d565b610249565b60405161013791906103a0565b60405180910390f35b61015a60048036038101906101559190610406565b61025e565b005b6101646102a5565b005b610180600480360381019061017b919061035d565b6102ea565b60405161018d91906103a0565b60405180910390f35b6002602052805f5260405f205f915090505481565b5f805f6101000a81548160ff021916908315150217905550565b6003602052805f5260405f205f915090505481565b5f8054906101000a900460ff1661021d576040517f506e062200000000000000000000000000000000000000000000000000000000815260040160405180910390fd5b5f60018111156102305761022f610444565b5b81600181111561024357610242610444565b5b50505050565b6004602052805f5260405f205f915090505481565b5f8054906101000a900460ff166102a1576040517f506e062200000000000000000000000000000000000000000000000000000000815260040160405180910390fd5b5050565b5f8054906101000a900460ff166102e8576040517f506e062200000000000000000000000000000000000000000000000000000000815260040160405180910390fd5b565b6001602052805f5260405f205f915090505481565b5f80fd5b5f73ffffffffffffffffffffffffffffffffffffffff82169050919050565b5f61032c82610303565b9050919050565b61033c81610322565b8114610346575f80fd5b50565b5f8135905061035781610333565b92915050565b5f60208284031215610372576103716102ff565b5b5f61037f84828501610349565b91505092915050565b5f819050919050565b61039a81610388565b82525050565b5f6020820190506103b35f830184610391565b92915050565b6103c281610388565b81146103cc575f80fd5b50565b5f813590506103dd816103b9565b92915050565b600281106103ef575f80fd5b50565b5f81359050610400816103e3565b92915050565b5f806040838503121561041c5761041b6102ff565b5b5f610429858286016103cf565b925050602061043a858286016103f2565b9150509250929050565b7f4e487b71000000000000000000000000000000000000000000000000000000005f52602160045260245ffdfea264697066735822122063a6610cb721ce6276fba9467cb693ac081213a06d4a4197f5412bfa64d09fd564736f6c63430008150033",
  "immutableReferences": {},
  "source": "// SPDX-License-Identifier: MIT\npragma solidity ^0.8.21;\n\ncontract Valuton {\n\n    bool PauseStatus = true;\n\n    bool AgreeStatus = true;\n\n\n    // map(address: timestamp)\n    // [{\"userAddress\":\"timestamp\"}];  // unix time\n    mapping(address => uint) public DepositTimeYes;\n\n    mapping(address => uint) public DepositTimeNo;\n\n\n    // map(address: amount)\n    // [{\"userAddress\":\"amount\"}];\n    mapping(address => uint) public DepositYes;\n    mapping(address => uint) public DepositNo;\n\n\n    // enum\n    enum Opinion {\n        Agree,\n        DisAgree\n    }\n\n\n    // error\n\n    error ContractPauseStatus();\n\n\n    function withdrawLido(uint amount,Opinion opinion) public {\n\n        if (!PauseStatus) {\n            revert ContractPauseStatus();\n        }\n\n\n    }\n\n    function dispatch() public {\n        if (!PauseStatus) {\n            revert ContractPauseStatus();\n        }\n    }\n\n    function depositLido(uint amount,Opinion opinion) public {\n        if (!PauseStatus) {\n            revert ContractPauseStatus();\n        }\n\n        if (opinion == Opinion.Agree) {\n\n        } else {\n\n\n        }\n    }\n\n\n\n\n    function reportLido() public {\n        // \n\n\n        // \n        PauseStatus = false;\n\n        // \n\n    }\n\n}\n",
  "sourcePath": "/Users/xbtg-/Github/valuton.safemarket.fun/valuton-contract/contracts/valuton.sol",
  "compiler": {
    "name": "solc",
    "version": "0.8.21+commit.d9974bed.Emscripten.clang"
  },
  "schemaVersion": "3.4.16",
  "updatedAt": "2024-10-16T01:59:08.959Z",
  "devdoc": {
    "kind": "dev",
    "methods": {},
    "version": 1
  },
  "userdoc": {
    "kind": "user",
    "methods": {},
    "version": 1
  }
}